:0400000071EF00F0AC
:100018007B80D8CF02F0E8CF03F0E0CF04F0F2A461
:1000280018EF00F01AEF00F069EF00F0784A792A2B
:1000380079BE28EF00F0795009E1140E785CD8A059
:1000480028EF00F02AEF00F066EF00F0000E796E5E
:10005800000E786E81B033EF00F036EF00F0010E3D
:1000680037EF00F0000EFF0A016E81500118FE0BF9
:100078000118816E764A772A77BE4CEF00F07750E8
:1000880009E1020E765CD8A04CEF00F04EEF00F0CC
:1000980066EF00F0744A752A75BE5CEF00F0755083
:1000A80009E13D0E745CD8A05CEF00F05EEF00F053
:1000B80062EF00F0000E756E000E746E000E776E23
:1000C800000E766E3D0ED66EF29404C0E0FF03C0BB
:0E00D800E8FF02C0D8FF7B901000E9EF08F0AF
:10060000002020202020202020202020202020200A
:1006100000434F4E544147454D3A20303000256449
:0D062000534547200054494D45523000001D
:10062E0022C038F023C039F024C03AF025C03BF088
:10063E0026C03CF027C03DF028C03EF029C03FF058
:10064E003FBE2CEF03F02FEF03F0010E30EF03F05F
:10065E00000E426E4250D8B437EF03F039EF03F07C
:10066E0049EF03F03F1E3E1E3D1E3C1E3B1E3A1E32
:10067E00391E386C000E39223A223B223C223D2292
:10068E003E223F2273BE56EF03F0735006E1720412
:10069E00D8B054EF03F056EF03F05CEF03F0000E0A
:1006AE00356E010E346E60EF03F072C034F073C01D
:1006BE0035F070C036F071C037F04250D8B46AEFE2
:1006CE0003F06CEF03F083EF03F03606D8A0370685
:1006DE004250D8A475EF03F077EF03F07DEF03F0EF
:1006EE00000E336E2B0E326E81EF03F0000E336E62
:1006FE002D0E326E32C042F0000E416E1F0E406E55
:10070E00000E00019F6F08EF04F04006D8A04106CE
:10071E00800E4024D96E000E4120DA6E38C005F0EE
:10072E0039C006F03AC007F03BC008F03CC009F0F3
:10073E003DC00AF03EC00BF03FC00CF00A0E0D6E2D
:10074E00000E0E6E000E0F6E000E106E000E116E6D
:10075E00000E126E000E136E000E146E19EC05F0E4
:10076E0005C02AF006C02BF007C02CF008C02DF0F3
:10077E0009C02EF00AC02FF00BC030F00CC031F0C3
:10078E002AC017F02BC018F0C9EC08F01750300F24
:10079E00DF6E3406D8A035063606D8A0370638C028
:1007AE0005F039C006F03AC007F03BC008F03CC077
:1007BE0009F03DC00AF03EC00BF03FC00CF00A0E2F
:1007CE000D6E000E0E6E000E0F6E000E106E000EF1
:1007DE00116E000E126E000E136E000E146E55EC9E
:1007EE0004F005C038F006C039F007C03AF008C072
:1007FE003BF009C03CF00AC03DF00BC03EF00CC00F
:10080E003FF041BE13EF04F0415008E14004D8A080
:10081E0013EF04F015EF04F031EF04F038503910F7
:10082E003A103B103C103D103E103F10D8A422EF62
:10083E0004F024EF04F08CEF03F035BE31EF04F03A
:10084E00355006E13404D8B02FEF04F031EF04F048
:10085E008CEF03F04250D8B437EF04F039EF04F0C8
:10086E0044EF04F04006D8A04106800E4024D96E15
:10087E00000E4120DA6E42C0DFFF20C015F021C00D
:10088E0016F0800E4024176E000E4120186E36C0F2
:10089E0019F037C01AF0E5EC07F01200000E166ED4
:1008AE0014BE5EEF04F05CEF04F070EF04F0141E63
:1008BE00131E121E111E101E0F1E0E1E0D6C000E8C
:1008CE000E220F2210221122122213221422010EA6
:1008DE00166E0CBE77EF04F075EF04F089EF04F09E
:1008EE000C1E0B1E0A1E091E081E071E061E056C78
:1008FE00000E06220722082209220A220B220C22AF
:10090E00010E161A20EE17F0070EDE6AE806FDE25B
:10091E000D500E100F101010111012101310141085
:10092E00D8B49CEF04F09EEF04F0F0EF04F0010E4B
:10093E00156EACEF04F0D8900D360E360F3610361D
:10094E001136123613361436152A14AEB1EF04F0E2
:10095E00B3EF04F0A2EF04F0D8901736183619361C
:10096E001A361B361C361D361E360D50055C0E50C3
:10097E0006580F5007581050085811500958125069
:10098E000A5813500B5814500C58D8A0D1EF04F03D
:10099E00D3EF04F0E4EF04F00D50055E0E50065A4E
:1009AE000F50075A1050085A1150095A12500A5A2D
:1009BE0013500B5A14500C5A1780D890143213320D
:1009CE001232113210320F320E320D32152EB3EFAB
:1009DE0004F01650D8B4F6EF04F0F8EF04F008EF78
:1009EE0005F01E1E1D1E1C1E1B1E1A1E191E181E75
:1009FE00176C000E182219221A221B221C221D22ED
:100A0E001E2217C005F018C006F019C007F01AC054
:100A1E0008F01BC009F01CC00AF01DC00BF01EC070
:100A2E000CF01200000E166E0CBE22EF05F020EF39
:100A3E0005F034EF05F00C1E0B1E0A1E091E081ED3
:100A4E00071E061E056C000E06220722082209222A
:100A5E000A220B220C22010E166E14BE3BEF05F07D
:100A6E0039EF05F04BEF05F0141E131E121E111E6A
:100A7E00101E0F1E0E1E0D6C000E0E220F221022C7
:100A8E0011221222132214220D500E100F101010CC
:100A9E001110121013101410D8B458EF05F05AEFAD
:100AAE0005F0A2EF05F0010E156E68EF05F0D89077
:100ABE000D360E360F3610361136123613361436F4
:100ACE00152A14AE6DEF05F06FEF05F05EEF05F031
:100ADE000D50055C0E5006580F5007581050085810
:100AEE001150095812500A5813500B5814500C58E4
:100AFE00D8A084EF05F086EF05F096EF05F00D50C7
:100B0E00055E0E50065A0F50075A1050085A1150D3
:100B1E00095A12500A5A13500B5A14500C5AD890A4
:100B2E00143213321232113210320F320E320D32A3
:100B3E00152E6FEF05F01650D8B4A8EF05F0AAEFFA
:100B4E0005F0BAEF05F00C1E0B1E0A1E091E081E3C
:100B5E00071E061E056C000E062207220822092219
:100B6E000A220B220C2205C005F006C006F007C0B3
:100B7E0007F008C008F009C009F00AC00AF00BC05F
:100B8E000BF00CC00CF0120045C0D9FF46C0DAFFC6
:100B9E00DECFF6FFDDCFF7FF0800F550250AD8A40B
:100BAE00DBEF05F0DDEF05F05CEF06F045C0D9FF99
:100BBE0046C0DAFFDE2A000EDD22000E716E000E38
:100BCE00706E70C07AF07268736845C0D9FF46C007
:100BDE00DAFFDECF53F0DDCF54F053C0F6FF54C032
:100BEE00F7FF0800F550640AD8B400EF06F002EFE4
:100BFE0006F010EF06F053C0F6FF54C0F7FF0800E2
:100C0E00F550690AD8A40EEF06F010EF06F053EF78
:100C1E0006F047C0D9FF48C0DAFFDFCF49F0020E19
:100C2E00DE26DFCF4AF0000EDD2249C0D9FF4AC0D2
:100C3E00DAFFDECF4BF0DDCF4CF0000E4CBEFF0ED8
:100C4E004D6E4E6E4F6E506E516E526E010E53249F
:100C5E00496E000E54204A6E45C0D9FF46C0DAFFD9
:100C6E0049C0DEFF4AC0DDFF43C020F044C021F082
:100C7E004BC022F04CC023F04DC024F04EC025F0E6
:100C8E004FC026F050C027F051C028F052C029F0B6
:100C9E0017EC03F070EF06F045C0D9FF46C0DAFF3F
:100CAE00DE2A000EDD2270EF06F045C0D9FF46C0E9
:100CBE00DAFFDECFF6FFDDCFF7FF0800F550056E49
:100CCE00066A43C007F044C008F0E3EC06F053EFA9
:100CDE0006F01200086E100E056E0850FCEC08F0BF
:100CEE00076E073A83500718EF0B0718836E200E16
:100CFE00056E0850FCEC08F0076E073A0746835065
:100D0E000718DF0B0718836E400E056E0850FCECBB
:100D1E0008F0076E073A0746074683500718BF0BC1
:100D2E000718836E800E056E0850FCEC08F0076EF7
:100D3E0007320732835007187F0B0718836E8482A1
:100D4E008492420EE82EFED700D0010E056E08509A
:100D5E00FCEC08F0076E073A83500718EF0B0718E4
:100D6E00836E020E056E0850FCEC08F0076E073A13
:100D7E00074683500718DF0B0718836E040E056EA7
:100D8E000850FCEC08F0076E073A074607468350FA
:100D9E000718BF0B0718836E080E056E0850FCEC83
:100DAE0008F0076E07320732835007187F0B0718BB
:100DBE00836E84828492120007500810D8B4EAEF32
:100DCE0006F0ECEF06F0F5EF06F007500810D8A489
:100DDE00F3EF06F0F5EF06F0FAEF06F0055031EC02
:100DEE0009F047EF07F020EE09F00750D92608501A
:100DFE00DA22DE50DE10D8B407EF07F009EF07F065
:100E0E0024EF07F020EE09F00750D9260850DA2219
:100E1E0010EE03F00750E1260850E222DE50E65CA9
:100E2E00E650800A0D6EDE50800A0D58D8B022EFC3
:100E3E0007F024EF07F047EF07F020EE03F007501E
:100E4E00D9260850DA22DECF09F0DDCF0AF007C02E
:100E5E00D9FF08C0DAFFDECF0BF0DDCF0CF0095062
:100E6E000B24D96E0A500C20DA6E05C0DFFF20EE7F
:100E7E0003F00750D9260850DA22DE2A000EDD22B2
:100E8E0012000F6E0F04D8A44FEF07F051EF07F0CA
:100E9E0056EF07F00B507F0F0E6E62EF07F0020E4B
:100EAE000F18D8A45DEF07F05FEF07F062EF07F0C1
:100EBE000B50BF0F0E6E0EC009F0000E0CEC09F0B9
:100ECE007FEF07F00CC0F6FF0DC0F7FFF86A050EB6
:100EDE00F76403D00800F55005D0F6CFE1FFF7CF49
:100EEE00E2FFE750096E010E0CEC09F00C4A0D2AD8
:100EFE000CC0F6FF0DC0F7FFF86A050EF76403D0BD
:100F0E000800F55005D0F6CFE1FFF7CFE2FFE7502E
:100F1E000009D8A495EF07F097EF07F069EF07F0F7
:100F2E001200000E956E96929694000E836E849427
:100F3E008492270E096EF50EE82EFED7092EFCD7E9
:100F4E0000F0000E0A6E300E71EC06F00D0E096EFA
:100F5E00FC0EE82EFED7092EFCD70A2A020E0A64D2
:100F6E00BBEF07F0BDEF07F0AAEF07F0020E71EC32
:100F7E0006F01A0EE82EFED700D0280E71EC06F001
:100F8E001A0EE82EFED700D0010E71EC06F0060EFA
:100F9E00096E300EE82EFED7092EFCD700D00C0EAF
:100FAE0071EC06F01A0EE82EFED700D0060E71EC8C
:100FBE0006F01A0EE82EFED700D012001ABEEAEF87
:100FCE0007F0ECEF07F0F2EF07F019C01EF01AC0B1
:100FDE001FF0F6EF07F0000E1F6E000E1E6E000ED5
:100FEE001D6E000E1C6E08EF08F0000E066E200E31
:100FFE00056E15C007F016C008F0E3EC06F01C4AAB
:10100E001D2A1E501C5C1D50800A1B6E1F50800A2C
:10101E001B58D8A015EF08F017EF08F0FCEF07F0FB
:10102E0017C00EF018C00FF015C010F016C011F05A
:10103E00A7EC08F0120029EC09F022EC09F02EECD6
:10104E0009F01BEC09F098EC07F0060E0B6E250E5E
:10105E000C6E060E0D6E010E48EC07F0020E0B6EB6
:10106E00110E0C6E060E0D6E020E48EC07F0A00E61
:10107E005D6E000E5E6E1E0E5F6E060E606E74C0AE
:10108E0061F075C062F059EC08F00C0E0B6EA00EFC
:10109E000C6E000E0D6E020E48EC07F03EEF08F0DF
:1010AE0071EF00F0610E636E000E646E5DC065F050
:1010BE005EC066F0000E696E000E686E000E6F6EFA
:1010CE00000E6E6E650E556E000E566E5FC057F0BA
:1010DE0060C058F0630E596E000E5A6E80EC08F028
:1010EE0068505D24D96E69505E20DA6E000EDF6E98
:1010FE00120057C05BF058C05CF094EF08F055C07A
:10110E0043F056C044F05B0E456E000E466E59C05D
:10111E0047F05AC048F0CBEC05F05BC0F6FF5CC060
:10112E00F7FF0800F5500009D8A4A0EF08F0A2EFD1
:10113E0008F086EF08F0000E566E000E556E120087
:10114E00000E146E000E136EB8EF08F012C005F00C
:10115E00066A10C007F011C008F0E3EC06F0134A5F
:10116E00142A13500E24D96E14500F20DA6EDF504D
:10117E00126E1250D8A4C6EF08F0C8EF08F0ADEF0B
:10118E0008F0120018BED6EF08F0185006E117044A
:10119E00D8B0D4EF08F0D6EF08F0E4EF08F017C09F
:1011AE0019F018C01AF0191E1A1E194A1A2A19C057
:1011BE0017F01AC018F0E8EF08F017C017F018C0B3
:1011CE0018F0120000EE80F0300EEE6AE806FDE137
:1011DE0000EE70F00B0EEE6AE806FDE17B907B925E
:1011EE00000EF86E000122EF08F0066E0650051490
:1011FE000009D8B405EF09F007EF09F00AEF09F07E
:10120E00010E0BEF09F0000E12000A6E0AB002D0AA
:10121E00849401D08484420EE82EFED700D08492AE
:10122E00095071EC06F01200C70ED56E000ED76E87
:10123E003D0ED66E1200000E936E010E816E0F0ED5
:10124E00C16E1200720ED36E000E9B6E1200A00EB7
:06125E00F26E1200120006
:020000040020DA
:08000000FFFFFFFFFFFFFFFF00
:020000040030CA
:0E000000FF08191EFF8181FF0FC00FE00F40A7
:00000001FF
