:0400000069EF00F0B4
:100008002082F2A40AEF00F00CEF00F067EF00F096
:100018001CC001F01DC002F01EC003F01FC004F098
:10002800000E056E000E066E000E076E3F0E086E7F
:1000380018EC03F001C01CF002C01DF003C01EF054
:1000480004C01FF01CC001F01DC002F01EC003F068
:100058001FC004F0000E056E000E066E800E076EBF
:100068003F0E086EEAEC05F0D8A03DEF00F03FEF38
:1000780000F042EF00F0818064EF00F01CC001F056
:100088001DC002F01EC003F01FC004F0000E056E74
:10009800000E066E000E076E400E086EEAEC05F0C4
:1000A800D8A059EF00F05BEF00F064EF00F081900A
:1000B800000E1C6E000E1D6E000E1E6E000E1F6ED2
:0E00C800060ED66EF2942092110009EF07F09A
:10060000002020202020202020202020202020200A
:100610000044757479204369636C653A2035302550
:0F0620000054494D455230202D2050574D0000B9
:100630000450800B0D6E045004240F6E03AE23EFA4
:1006400003F025EF03F026EF03F00F800F50D8B42E
:100650002CEF03F02EEF03F043EF03F00F28D8A4A4
:1006600034EF03F036EF03F03EEF03F0000E016EBF
:10067000000E026E000E036E000E046E038E000E5E
:10068000046E4BEF03F0000E016E000E026E000EC2
:10069000036E000E046E0850800B0E6E0D500E1887
:1006A000D8B455EF03F057EF03F058EF03F00D8C7B
:1006B000085008240E6E07AE60EF03F062EF03F0FF
:1006C00063EF03F00E800E50D8B469EF03F06BEFC8
:1006D00003F080EF03F00E28D8A471EF03F073EF5E
:1006E00003F07BEF03F0000E056E000E066E000EA9
:1006F000076E000E086E078E000E086E88EF03F07E
:10070000000E056E000E066E000E076E000E086EDF
:100710000F500E5CD8B08FEF03F091EF03F0B8EFFD
:1007200003F00DAC96EF03F098EF03F09AEF03F0AF
:10073000800E0D1A0FC010F00EC00FF010C00EF09A
:1007400001C010F005C001F010C005F002C010F0AB
:1007500006C002F010C006F003C010F007C003F09E
:1007600010C007F004C010F008C004F010C008F07A
:10077000000E106E0F500EC009F00A6A095E000EDE
:100780000A5A0ABECDEF03F00A5009E11A0E095CBD
:10079000D8A0CDEF03F0CFEF03F006EF04F0015047
:1007A000021003100410D8A4D8EF03F0DBEF03F01D
:1007B000010EDCEF03F0000E106E000E016E000E55
:1007C000026E000E036E000E046E0EC00FF00FEFEF
:1007D00004F010A0EEEF03F0F0EF03F0F6EF03F0FB
:1007E000D89010300109106EF8EF03F0D890103255
:1007F00001A0FDEF03F0FFEF03F000EF04F0108E17
:10080000043404320332023201320F2A0E500F5CDC
:10081000D8A00DEF04F00FEF04F0E9EF03F00DBCEA
:1008200014EF04F016EF04F056EF04F00F50D8A4C4
:100830001CEF04F01EEF04F028EF04F0000E016E30
:10084000000E026E000E036E000E046E77EF05F0D0
:1008500005500126065002220750032208500422A8
:1008600004A035EF04F037EF04F0E3EF04F010A03C
:100870003CEF04F03EEF04F044EF04F0D890103069
:100880000109106E46EF04F0D890103201A04BEF32
:1008900004F04DEF04F04EEF04F0108E04340432F7
:1008A0000332023201320F2AE3EF04F00550015CFB
:1008B00006500258075003580450800A096E085029
:1008C000800A0958D8B067EF04F069EF04F094EF9C
:1008D00004F00150055C096E025006580A6E035080
:1008E00007580B6E045008580C6EFF0E0924016E59
:1008F000FF0E0A20026EFF0E0B20036EFF0E0C206F
:10090000046E800E0D1A106C1050D8A48AEF04F0FB
:100910008CEF04F09CEF04F0010E0126000E022281
:10092000032204229CEF04F00550015E0650025A97
:100930000750035A0850045A0150021003100410C3
:10094000D8A4A5EF04F0A7EF04F0DCEF04F01050FA
:10095000D8A4ADEF04F0AFEF04F0DCEF04F0000E2C
:10096000016E000E026E000E036E000E046E77EF35
:1009700005F0D890013602360336043610AEC3EFC8
:1009800004F0C5EF04F0C6EF04F0018010A0CBEF37
:1009900004F0CDEF04F0D1EF04F0D8801036D3EF9F
:1009A00004F0D89010360F50D8B4D9EF04F0DBEF34
:1009B00004F0DCEF04F00F0603AEE1EF04F0E3EF28
:1009C00004F0B9EF04F0000E0E6E10AEEAEF04F082
:1009D000ECEF04F004EF05F010C009F07F0E0916EB
:1009E000D8B4F5EF04F0F7EF04F0FBEF04F0010EDC
:1009F0000E6E04EF05F001A000EF05F002EF05F028
:100A000004EF05F0F7EF04F00E50D8B40AEF05F04C
:100A10000CEF05F037EF05F0010E0126000E022263
:100A20000322042204A017EF05F019EF05F037EFB9
:100A300005F001C009F002C00AF003C00BF004C0C9
:100A40000CF00C340C320B320A32093209C001F0BE
:100A50000AC002F00BC003F00CC004F00F28D8B499
:100A600034EF05F036EF05F037EF05F00F2A0F28C9
:100A7000D8B43DEF05F03FEF05F047EF05F00F501C
:100A8000D8A445EF05F047EF05F059EF05F0000E4B
:100A9000016E000E026E000E036E000E046E0F500B
:100AA000D8A455EF05F057EF05F059EF05F0000E0B
:100AB0000D6E0FA05EEF05F060EF05F063EF05F03F
:100AC000038E64EF05F0039ED8900F30046E0DAED8
:100AD0006CEF05F06EEF05F06FEF05F0048E01C0CE
:100AE00001F002C002F003C003F004C004F01200E1
:100AF000146E100E116E1450EAEC06F0136E133AD9
:100B000083501318EF0B1318836E200E116E1450C0
:100B1000EAEC06F0136E133A134683501318DF0BFA
:100B20001318836E400E116E1450EAEC06F0136E2B
:100B3000133A1346134683501318BF0B1318836ED2
:100B4000800E116E1450EAEC06F0136E133213325D
:100B5000835013187F0B1318836E84848494420E81
:100B6000E82EFED700D0010E116E1450EAEC06F00C
:100B7000136E133A83501318EF0B1318836E020E83
:100B8000116E1450EAEC06F0136E133A13468350BC
:100B90001318DF0B1318836E040E116E1450EAEC59
:100BA00006F0136E133A1346134683501318BF0B07
:100BB0001318836E080E116E1450EAEC06F0136ED3
:100BC00013321332835013187F0B1318836E8484EF
:100BD00084941200000E0114096E000E02140A6EB5
:100BE000800E03140B6E7F0E04140C6E09500A1055
:100BF0000B100C10D8A4FFEF05F001EF06F009EF81
:100C000006F0000E016E000E026E000E036E000E66
:100C1000046E000E0514096E000E06140A6E800E96
:100C200007140B6E7F0E08140C6E09500A100B107F
:100C30000C10D8A41EEF06F020EF06F028EF06F007
:100C4000000E056E000E066E000E076E000E086E9A
:100C5000055001180FE1065002180CE10750031867
:100C600009E108500418D8B438EF06F03AEF06F05E
:100C70003DEF06F0D8903EEF06F0D8801200000E4F
:100C8000956E969496929690000E836E84908492C0
:100C90008494270E156EF50EE82EFED7152EFCD780
:100CA00000F0000E166E300E78EC05F00D0E156E8D
:100CB000FC0EE82EFED7152EFCD7162A020E16645F
:100CC00064EF06F066EF06F053EF06F0020E78ECE4
:100CD00005F01A0EE82EFED700D0280E78EC05F0AD
:100CE0001A0EE82EFED700D0010E78EC05F0060EA5
:100CF000156E300EE82EFED7152EFCD700D00C0E48
:100D000078EC05F01A0EE82EFED700D0060E78EC2F
:100D100005F01A0EE82EFED700D012001B6E1B0441
:100D2000D8A495EF06F097EF06F09CEF06F0175069
:100D30007F0F1A6EA8EF06F0020E1B18D8A4A3EFBF
:100D400006F0A5EF06F0A8EF06F01750BF0F1A6ED9
:100D50001AC015F0000EFAEC06F0BBEF06F018C052
:100D6000F6FF19C0F7FF0800F5CF15F0010EFAECF9
:100D700006F0184A192A18C0F6FF19C0F7FF080034
:100D8000F5500009D8A4C7EF06F0C9EF06F0AFEFA1
:100D900006F0120022EC07F016EC07F027EC07F043
:100DA0001DEC07F03FEC06F0010E176E210E186ED9
:100DB000060E196E010E8EEC06F0020E176E110E65
:100DC000186E060E196E020E8EEC06F0E6EF06F0B7
:100DD00069EF00F0126E125011140009D8B4F3EF4D
:100DE00006F0F5EF06F0F8EF06F0010EF9EF06F069
:100DF000000E1200166E16B002D0849001D08480CE
:100E0000420EE82EFED700D08494155078EC05F001
:100E100012001F6A1E6A1D6A1C6A20902092000E32
:100E2000F86E060EF76E0001CAEF06F0000E936E24
:100E3000000E816E0F0EC16E1200C20ED56E060E30
:100E4000D66E1200000ED36E000E9B6E1200A00E26
:040E5000F26E12002C
:020000040020DA
:08000000FFFFFFFFFFFFFFFF00
:020000040030CA
:0E000000FF02191EFF8181FF0FC00FE00F40AD
:00000001FF
