:0400000007EF00F016
:0A0008007282B2ED08F002EF0BF077
:10060000002020202020202020202020202020200A
:10061000005245414C2054494D4520434C4F434BDB
:1006200000253032643A253032643A253032640095
:0106300000C9
:100632001FC035F020C036F021C037F022C038F09C
:1006420023C039F024C03AF025C03BF026C03CF06C
:100652003CBE2EEF03F031EF03F0010E32EF03F058
:10066200000E3D6E3D50D8B439EF03F03BEF03F07E
:100672004BEF03F03C1E3B1E3A1E391E381E371E3E
:10068200361E356C000E36223722382239223A22A3
:100692003B223C226ABE50EF03F052EF03F053EFCD
:1006A20003F071926ABE60EF03F06A5006E16904DA
:1006B200D8B05EEF03F060EF03F066EF03F0000ED8
:1006C200326E010E316E6AEF03F069C031F06AC01A
:1006D20032F067C033F068C034F03D50D8B474EFE4
:1006E20003F076EF03F08DEF03F03306D8A0340663
:1006F2003D50D8A47FEF03F081EF03F087EF03F0C2
:10070200000E306E2B0E2F6E8BEF03F0000E306E4C
:100712002D0E2F6E2FC03DF0000E3F6E1F0E3E6E4F
:10072200000E00019F6F12EF04F03E06D8A03F06B4
:10073200800E3E24D96E000E3F20DA6E35C002F0E4
:1007420036C003F037C004F038C005F039C006F0F7
:100752003AC007F03BC008F03CC009F00A0E0A6E2E
:10076200000E0B6E000E0C6E000E0D6E000E0E6E65
:10077200000E0F6E000E106E000E116E84EC06F06D
:1007820002C027F003C028F004C029F005C02AF0F7
:1007920006C02BF007C02CF008C02DF009C02EF0C7
:1007A20027C014F028C015F0CCEC0AF01450300F1A
:1007B200DF6E3106D8A032063306D8A0340635C023
:1007C20002F036C003F037C004F038C005F039C07B
:1007D20006F03AC007F03BC008F03CC009F00A0E30
:1007E2000A6E000E0B6E000E0C6E000E0D6E000EE9
:1007F2000E6E000E0F6E000E106E000E116EC0EC2B
:1008020005F002C035F003C036F004C037F005C071
:1008120038F006C039F007C03AF008C03BF009C012
:100822003CF03FBE1DEF04F03F5008E13E04D8A06B
:100832001DEF04F01FEF04F04FEF04F035503610B7
:100842003710381039103A103B103C10D8A42CEF56
:1008520004F02EEF04F096EF03F032BE3BEF04F00B
:10086200325006E13104D8B039EF04F03BEF04F026
:1008720096EF03F034BE46EF04F0345008E133043F
:10088200D8A046EF04F048EF04F04FEF04F071B245
:100892004DEF04F04FEF04F096EF03F03D50D8B463
:1008A20055EF04F057EF04F062EF04F03E06D8A0D3
:1008B2003F06800E3E24D96E000E3F20DA6E3DC008
:1008C200DFFF1DC012F01EC013F0800E3E24146E16
:1008D200000E3F20156E33C016F034C017F00DEC39
:1008E20009F0120042C0D9FF43C0DAFFDECFF6FFA3
:1008F200DDCFF7FF0800F550250AD8A483EF04F0F6
:1009020085EF04F0ABEF05F042C0D9FF43C0DAFF38
:10091200DE2A000EDD22000E686E000E676E67C0D2
:1009220071F069686A68000E526E000E516EC4EF73
:1009320004F0718242C0D9FF43C0DAFFDE2A000E02
:10094200DD22C4EF04F0000E526E010E516EC4EFB0
:1009520004F042C0D9FF43C0DAFFDECFF6FFDDCF9D
:10096200F7FF0800F550466E476A4750000AD8B4B0
:10097200BDEF04F0A4EF04F04650300AD8B49AEF69
:1009820004F0A4EF04F051505210D8B4CBEF04F0AD
:10099200CDEF04F0AAEF04F042C0D9FF43C0DAFF62
:1009A200DECFF6FFDDCFF7FF0800F5502A0AD8A404
:1009B200DDEF04F0DFEF04F008EF05F042C0D9FFED
:1009C20043C0DAFFDE2A000EDD2244C0D9FF45C053
:1009D200DAFFDFCF46F0020EDE26DFCF47F0000E51
:1009E200DD2246C0D9FF47C0DAFFDECF67F0DDCF98
:1009F20068F068BE01EF05F0FFEF04F03BEF05F091
:100A02007180676C681ED8B0682A3BEF05F042C05F
:100A1200D9FF43C0DAFFDECF08F0DDCF09F036ECB4
:100A220007F008C067F009C068F01FEF05F042C088
:100A3200D9FF43C0DAFFDE2A000EDD2242C0D9FF11
:100A420043C0DAFFDECFF6FFDDCFF7FF0800F5CFB8
:100A520046F0D00E4624476E486AFF0E48224850A0
:100A620009E10A0E475CD8A039EF05F03BEF05F02B
:100A720018EF05F042C0D9FF43C0DAFFDECF53F0D2
:100A8200DDCF54F053C0F6FF54C0F7FF0800F55015
:100A9200640AD8B44FEF05F051EF05F05FEF05F0AF
:100AA20053C0F6FF54C0F7FF0800F550690AD8A4F6
:100AB2005DEF05F05FEF05F0A2EF05F044C0D9FF4E
:100AC20045C0DAFFDFCF46F0020EDE26DFCF47F069
:100AD200000EDD2246C0D9FF47C0DAFFDECF49F063
:100AE200DDCF4AF0000E4ABEFF0E4B6E4C6E4D6ECD
:100AF2004E6E4F6E506E010E5324466E000E542001
:100B0200476E42C0D9FF43C0DAFF46C0DEFF47C08E
:100B1200DDFF40C01DF041C01EF049C01FF04AC0B9
:100B220020F04BC021F04CC022F04DC023F04EC04B
:100B320024F04FC025F050C026F019EC03F0BFEFAF
:100B420005F042C0D9FF43C0DAFFDE2A000EDD22E3
:100B5200BFEF05F042C0D9FF43C0DAFFDECFF6FF98
:100B6200DDCFF7FF0800F550026E036A40C004F0C3
:100B720041C005F04DEC08F0A2EF05F01200000EA6
:100B8200136E11BEC9EF05F0C7EF05F0DBEF05F0FC
:100B9200111E101E0F1E0E1E0D1E0C1E0B1E0A6CA9
:100BA200000E0B220C220D220E220F2210221122E5
:100BB200010E136E09BEE2EF05F0E0EF05F0F4EF6F
:100BC20005F0091E081E071E061E051E041E031E32
:100BD200026C000E032204220522062207220822AA
:100BE2000922010E131A20EE14F0070EDE6AE8063F
:100BF200FDE20A500B100C100D100E100F10101009
:100C02001110D8B407EF06F009EF06F05BEF06F01B
:100C1200010E126E17EF06F0D8900A360B360C361C
:100C22000D360E360F3610361136122A11AE1CEF63
:100C320006F01EEF06F00DEF06F0D89014361536CA
:100C420016361736183619361A361B360A50025C13
:100C52000B5003580C5004580D5005580E500658AE
:100C62000F5007581050085811500958D8A03CEF9F
:100C720006F03EEF06F04FEF06F00A50025E0B5010
:100C8200035A0C50045A0D50055A0E50065A0F5072
:100C9200075A1050085A1150095A1480D89011322C
:100CA20010320F320E320D320C320B320A32122E49
:100CB2001EEF06F01350D8B461EF06F063EF06F0B2
:100CC20073EF06F01B1E1A1E191E181E171E161E83
:100CD200151E146C000E1522162217221822192234
:100CE2001A221B2214C002F015C003F016C004F031
:100CF20017C005F018C006F019C007F01AC008F0B6
:100D02001BC009F01200000E136E09BE8DEF06F033
:100D12008BEF06F09FEF06F0091E081E071E061E47
:100D2200051E041E031E026C000E0322042205226D
:100D32000622072208220922010E136E11BEA6EF17
:100D420006F0A4EF06F0B6EF06F0111E101E0F1EFD
:100D52000E1E0D1E0C1E0B1E0A6C000E0B220C2208
:100D62000D220E220F22102211220A500B100C10FB
:100D72000D100E100F1010101110D8B4C3EF06F0A2
:100D8200C5EF06F00DEF07F0010E126ED3EF06F07D
:100D9200D8900A360B360C360D360E360F36103614
:100DA2001136122A11AED8EF06F0DAEF06F0C9EFCB
:100DB20006F00A50025C0B5003580C5004580D50B8
:100DC20005580E5006580F50075810500858115029
:100DD2000958D8A0EFEF06F0F1EF06F001EF07F0A7
:100DE2000A50025E0B50035A0C50045A0D50055A19
:100DF2000E50065A0F50075A1050085A1150095AED
:100E0200D890113210320F320E320D320C320B32B8
:100E12000A32122EDAEF06F01350D8B413EF07F0AD
:100E220015EF07F025EF07F0091E081E071E061E24
:100E3200051E041E031E026C000E0322042205225C
:100E4200062207220822092202C002F003C003F090
:100E520004C004F005C005F006C006F007C007F0A4
:100E620008C008F009C009F01200000E106E000E52
:100E72000F6E000E0E6E000E0D6E42EF07F0084A66
:100E8200092A08C0F6FF09C0F7FF0800F550200A3A
:100E9200D8B44EEF07F050EF07F040EF07F008C06C
:100EA200F6FF09C0F7FF0800F5CF0AF0F70E0A2493
:100EB2000B6E0C6AFF0E0C220C5009E1050E0B5C46
:100EC200D8A066EF07F068EF07F040EF07F072EF87
:100ED20007F0000E0E6E010E0D6E084A092AA7EFEA
:100EE20007F008C0F6FF09C0F7FF0800F5500A6EC8
:100EF2000B6A0B50000AD8B481EF07F0A7EF07F096
:100F02000A502B0AD8B46EEF07F0060AD8B46AEF7B
:100F120007F0A7EF07F00FC002F010C003F0000EB9
:100F2200056E0A0E046E15EC0BF008C0F6FF09C040
:100F3200F7FF0800F550025E000E035A300E02243D
:100F42000F6E000E0320106E6EEF07F008C0F6FF62
:100F520009C0F7FF0800F5CF0AF0D00E0A240B6E85
:100F62000C6AFF0E0C220C5009E10A0E0B5CD8A091
:100F7200BDEF07F0BFEF07F08CEF07F00D500E103A
:100F8200D8A4C6EF07F0C8EF07F0D6EF07F00FC0FE
:100F92000AF010C00BF00A1E0B1E0A4A0B2A0AC0E6
:100FA20008F00BC009F0DAEF07F00FC008F010C02C
:100FB20009F01200056E100E026E055028EC0BF0BF
:100FC200046E043A83500418EF0B0418836E200E4B
:100FD200026E055028EC0BF0046E043A044683506E
:100FE2000418DF0B0418836E400E026E055028ECC5
:100FF2000BF0046E043A0446044683500418BF0BF7
:101002000418836E800E026E055028EC0BF0046EFD
:1010120004320432835004187F0B0418836E8484D4
:101022008494420EE82EFED700D0010E026E0550C7
:1010320028EC0BF0046E043A83500418EF0B0418EA
:10104200836E020E026E055028EC0BF0046E043A19
:10105200044683500418DF0B0418836E040E026EDC
:10106200055028EC0BF0046E043A04460446835003
:101072000418BF0B0418836E080E026E055028EC8C
:101082000BF0046E04320432835004187F0B0418F0
:10109200836E84848494120004500510D8B454EFF3
:1010A20008F056EF08F05FEF08F004500510D8A4DE
:1010B2005DEF08F05FEF08F064EF08F002505EECBD
:1010C2000BF0B1EF08F020EE09F00450D9260550DC
:1010D200DA22DE50DE10D8B471EF08F073EF08F0B8
:1010E2008EEF08F020EE09F00450D9260550DA22DE
:1010F20010EE03F00450E1260550E222DE50E65CD9
:10110200E650800A0A6EDE50800A0A58D8B08CEF88
:1011120008F08EEF08F0B1EF08F020EE03F0045073
:10112200D9260550DA22DECF06F0DDCF07F004C063
:10113200D9FF05C0DAFFDECF08F0DDCF09F0065097
:101142000824D96E07500920DA6E02C0DFFF20EEB4
:1011520003F00450D9260550DA22DE2A000EDD22E1
:10116200120006009EA0B8EF08F0BAEF08F00BEFED
:1011720009F06F4A702A81B0C1EF08F0C4EF08F09D
:10118200010EC5EF08F0000EFF0A016E8150011832
:10119200FE0B0118816E70BED8EF08F0705009E1A5
:1011A2003C0E6F5CD8A0D8EF08F0DAEF08F006EF3B
:1011B20009F0000E706E000E6F6E6D4A6E2A6EBEE2
:1011C200ECEF08F06E5009E13C0E6D5CD8A0ECEF3C
:1011D20008F0EEEF08F006EF09F0000E6E6E000E5A
:1011E2006D6E6B4A6C2A6CBE00EF09F06C5009E11F
:1011F200180E6B5CD8A000EF09F002EF09F006EFC1
:1012020009F0000E6C6E000E6B6E800ECF6E000E3B
:10121200CE6E9E907292110071A012EF09F014EF3F
:1012220009F01EEF09F014C00BF015C00CF012C04B
:101232000DF013C00EF0AAEC0AF017BE23EF09F06E
:1012420025EF09F02BEF09F016C01BF017C01CF0B8
:101252002FEF09F0000E1C6E000E1B6E000E1A6EB0
:10126200000E196E41EF09F0000E036E200E026EA1
:1012720012C004F013C005F04DEC08F0194A1A2A06
:101282001B50195C1A50800A186E1C50800A18589C
:10129200D8A04EEF09F050EF09F035EF09F071B028
:1012A20055EF09F057EF09F061EF09F014C00BF0A8
:1012B20015C00CF012C00DF013C00EF0AAEC0AF02B
:1012C20012000C6E0C04D8A469EF09F06BEF09F060
:1012D20070EF09F008507F0F0B6E7CEF09F0020EE1
:1012E2000C18D8A477EF09F079EF09F07CEF09F038
:1012F2000850BF0F0B6E0BC006F0000E38EC0BF05F
:1013020099EF09F009C0F6FF0AC0F7FFF86A050E67
:10131200F76403D00800F55005D0F6CFE1FFF7CF10
:10132200E2FFE750066E010E38EC0BF0094A0A2A7A
:1013320009C0F6FF0AC0F7FFF86A050EF76403D08A
:101342000800F55005D0F6CFE1FFF7CFE2FFE750F6
:101352000009D8A4AFEF09F0B1EF09F083EF09F06B
:101362001200000E956E969496929690000E836EE1
:10137200849084928494270E066EF50EE82EFED792
:10138200062EFCD700F0000E076E300EDBEC07F0E5
:101392000D0E066EFC0EE82EFED7062EFCD7072A8F
:1013A200020E0764D7EF09F0D9EF09F0C6EF09F092
:1013B200020EDBEC07F01A0EE82EFED700D0280E44
:1013C200DBEC07F01A0EE82EFED700D0010EDBECA4
:1013D20007F0060E066E300EE82EFED7062EFCD75C
:1013E20000D00C0EDBEC07F01A0EE82EFED700D070
:1013F200060EDBEC07F01A0EE82EFED700D0120024
:1014020055EC0BF04EEC0BF05AEC0BF047EC0BF0FA
:10141200B2EC09F0010E086E110E096E060E0A6E8C
:10142200010E62EC09F0A00E5D6E000E5E6E210EE2
:101432005F6E060E606E6BC061F06CC062F06DC0D4
:1014420063F06EC064F06FC065F070C066F037EC98
:101452000AF0050E086EA00E096E000E0A6E020E4C
:1014620062EC09F014EF0AF007EF00F0610E0001E0
:10147200C06F000EC16F5DC0C2F05EC0C3F0000E4F
:10148200C66F000EC56F000ECC6F000ECB6FC20E82
:10149200556E000E566E5FC057F060C058F0C00E19
:1014A200596E000E5A6E60EC0AF00001C5515D24BF
:1014B200D96EC6515E20DA6E000EDF6E120057C082
:1014C2005BF058C05CF074EF0AF055C040F056C0B3
:1014D20041F05B0E426E000E436E59C044F05AC09A
:1014E20045F073EC04F05BC0F6FF5CC0F7FF080048
:1014F200F5500009D8A480EF0AF082EF0AF066EFF7
:101502000AF0000E566E000E556E1200010E066EA7
:10151200200E02180310D8B491EF0AF093EF0AF0EC
:10152200A6EF0AF0F70E0224046EFF0E0320056EEA
:10153200055009E1050E045CD8A0A2EF0AF0A4EF61
:101542000AF0A6EF0AF0000E066E06C002F0036A69
:101552001200000E116E000E106EBBEF0AF00FC0EB
:1015620002F0036A0DC004F00EC005F04DEC08F065
:10157200104A112A10500B24D96E11500C20DA6E29
:10158200DF500F6E0F50D8A4C9EF0AF0CBEF0AF06C
:10159200B0EF0AF0120015BED9EF0AF0155006E1BD
:1015A2001404D8B0D7EF0AF0D9EF0AF0E7EF0AF047
:1015B20014C016F015C017F0161E171E164A172A69
:1015C20016C014F017C015F0EBEF0AF014C014F0B7
:1015D20015C015F01200D00E0224046EFF0E032077
:1015E200056E05500AE10A0E045CD8A0FBEF0AF072
:1015F200FEEF0AF0010EFFEF0AF0000E026E036A20
:10160200120000EE80F0400EEE6AE806FDE100EE08
:1016120067F00B0EEE6AE806FDE172907292000E20
:10162200F86E000101EF0AF002500402F3CF06F057
:10163200F4CF07F002500502F350072603500402CC
:10164200F350072606C002F007C003F01200036E33
:10165200035002140009D8B431EF0BF033EF0BF052
:1016620036EF0BF0010E37EF0BF0000E1200076E93
:1016720007B002D0849001D08480420EE82EFED7BB
:1016820000D084940650DBEC07F012008F0ECD6E72
:10169200800ECF6E000ECE6E1200000E936E010E03
:1016A200816E0F0EC16E1200000ED36E000E9B6E85
:0C16B2001200C00EF26E9D8012001200AB
:020000040020DA
:08000000FFFFFFFFFFFFFFFF00
:020000040030CA
:0E000000FF02191EFF8181FF0FC00FE00F40AD
:00000001FF
