:0400000007EF00F016
:0A0008002082F8ED05F0B4EF07F0D8
:10060000002020202020202020202020202020200A
:100610000044757479204369636C653A200054493D
:100620004D455230202D2050574D00000450800B76
:100630000D6E045004240F6E03AE21EF03F023EF80
:1006400003F024EF03F00F800F50D8B42AEF03F02B
:100650002CEF03F041EF03F00F28D8A432EF03F0A2
:1006600034EF03F03CEF03F0000E016E000E026E5B
:10067000000E036E000E046E038E000E046E49EF32
:1006800003F0000E016E000E026E000E036E000EEF
:10069000046E0850800B0E6E0D500E18D8B453EF38
:1006A00003F055EF03F056EF03F00D8C08500824CB
:1006B0000E6E07AE5EEF03F060EF03F061EF03F044
:1006C0000E800E50D8B467EF03F069EF03F07EEFB1
:1006D00003F00E28D8A46FEF03F071EF03F079EF69
:1006E00003F0000E056E000E066E000E076E000E83
:1006F000086E078E000E086E86EF03F0000E056E82
:10070000000E066E000E076E000E086E0F500E5C97
:10071000D8B08DEF03F08FEF03F0B6EF03F00DAC20
:1007200094EF03F096EF03F098EF03F0800E0D1AAC
:100730000FC010F00EC00FF010C00EF001C010F08E
:1007400005C001F010C005F002C010F006C002F0B4
:1007500010C006F003C010F007C003F010C007F08F
:1007600004C010F008C004F010C008F0000E106EB5
:100770000F500EC009F00A6A095E000E0A5A0ABE3E
:10078000CBEF03F00A5009E11A0E095CD8A0CBEFB9
:1007900003F0CDEF03F004EF04F00150021003105A
:1007A0000410D8A4D6EF03F0D9EF03F0010EDAEF6E
:1007B00003F0000E106E000E016E000E026E000EB1
:1007C000036E000E046E0EC00FF00DEF04F010A0CB
:1007D000ECEF03F0EEEF03F0F4EF03F0D8901030FD
:1007E0000109106EF6EF03F0D890103201A0FBEF74
:1007F00003F0FDEF03F0FEEF03F0108E043404323B
:100800000332023201320F2A0E500F5CD8A00BEFD8
:1008100004F00DEF04F0E7EF03F00DBC12EF04F06D
:1008200014EF04F054EF04F00F50D8A41AEF04F0C2
:100830001CEF04F026EF04F0000E016E000E026EB5
:10084000000E036E000E046E75EF05F005500126D4
:1008500006500222075003220850042204A033EF5E
:1008600004F035EF04F0E1EF04F010A03AEF04F0EB
:100870003CEF04F042EF04F0D89010300109106E04
:1008800044EF04F0D890103201A049EF04F04BEF90
:1008900004F04CEF04F0108E0434043203320232C0
:1008A00001320F2AE1EF04F00550015C06500258B6
:1008B000075003580450800A096E0850800A0958EE
:1008C000D8B065EF04F067EF04F092EF04F0015048
:1008D000055C096E025006580A6E035007580B6EED
:1008E000045008580C6EFF0E0924016EFF0E0A20FA
:1008F000026EFF0E0B20036EFF0E0C20046E800EA6
:100900000D1A106C1050D8A488EF04F08AEF04F090
:100910009AEF04F0010E0126000E022203220422A7
:100920009AEF04F00550015E0650025A0750035A30
:100930000850045A0150021003100410D8A4A3EF69
:1009400004F0A5EF04F0DAEF04F01050D8A4ABEFF8
:1009500004F0ADEF04F0DAEF04F0000E016E000ECB
:10096000026E000E036E000E046E75EF05F0D89057
:10097000013602360336043610AEC1EF04F0C3EF81
:1009800004F0C4EF04F0018010A0C9EF04F0CBEF35
:1009900004F0CFEF04F0D8801036D1EF04F0D890F7
:1009A00010360F50D8B4D7EF04F0D9EF04F0DAEFD7
:1009B00004F00F0603AEDFEF04F0E1EF04F0B7EF51
:1009C00004F0000E0E6E10AEE8EF04F0EAEF04F053
:1009D00002EF05F010C009F07F0E0916D8B4F3EF4E
:1009E00004F0F5EF04F0F9EF04F0010E0E6E02EFE3
:1009F00005F001A0FEEF04F000EF05F002EF05F0B6
:100A0000F5EF04F00E50D8B408EF05F00AEF05F04A
:100A100035EF05F0010E0126000E0222032204220A
:100A200004A015EF05F017EF05F035EF05F001C054
:100A300009F002C00AF003C00BF004C00CF00C3443
:100A40000C320B320A32093209C001F00AC002F03E
:100A50000BC003F00CC004F00F28D8B432EF05F03F
:100A600034EF05F035EF05F00F2A0F28D8B43BEF2F
:100A700005F03DEF05F045EF05F00F50D8A443EF2A
:100A800005F045EF05F057EF05F0000E016E000E82
:100A9000026E000E036E000E046E0F50D8A453EFCA
:100AA00005F055EF05F057EF05F0000E0D6E0FA0A5
:100AB0005CEF05F05EEF05F061EF05F0038E62EF8D
:100AC00005F0039ED8900F30046E0DAE6AEF05F06E
:100AD0006CEF05F06DEF05F0048E01C001F002C06F
:100AE00002F003C003F004C004F01200000E011471
:100AF000096E000E02140A6E800E03140B6E7F0E38
:100B000004140C6E09500A100B100C10D8A48BEFB3
:100B100005F08DEF05F095EF05F0000E016E000E6B
:100B2000026E000E036E000E046E000E0514096EB8
:100B3000000E06140A6E800E07140B6E7F0E08144A
:100B40000C6E09500A100B100C10D8A4AAEF05F077
:100B5000ACEF05F0B4EF05F0000E056E000E066E6A
:100B6000000E076E000E086E04AEB9EF05F0BBEF85
:100B700005F0C4EF05F0016C021ED8B0022A031E76
:100B8000D8B0032A800E045608AEC9EF05F0CBEFAB
:100B900005F0D4EF05F0056C061ED8B0062A071E36
:100BA000D8B0072A800E0856000E011A000E021A4D
:100BB000000E031A800E041A000E051A000E061A03
:100BC000000E071A800E081A0550015C06500258E4
:100BD0000750035808500458D8B0F1EF05F0F3EF70
:100BE00005F0F6EF05F0D890F7EF05F0D880120089
:100BF0000600F2A4FEEF05F000EF06F076EF06F037
:100C00001CC001F01DC002F01EC003F01FC004F0A4
:100C1000000E056E000E066E800E076E3F0E086E0B
:100C200016EC03F001C01CF002C01DF003C01EF062
:100C300004C01FF0000E016E000E026E000E036E67
:100C4000400E046E1CC005F01DC006F01EC007F06B
:100C50001FC008F076EC05F0D8A031EF06F033EFB6
:100C600006F036EF06F0818073EF06F0000E016E9D
:100C7000000E026E000E036E400E046E1CC005F0E6
:100C80001DC006F01EC007F01FC008F076EC05F08E
:100C9000D8B04DEF06F04FEF06F06BEF06F0000E08
:100CA000016E000E026E800E036E400E046E1CC0BC
:100CB00005F01DC006F01EC007F01FC008F076EC5E
:100CC00005F0D8A066EF06F068EF06F06BEF06F0CF
:100CD000819073EF06F0000E1C6E000E1D6E000E6C
:100CE0001E6E000E1F6E000ED66EF2942092110042
:100CF000146E100E116E145095EC07F0136E133A2B
:100D000083501318EF0B1318836E200E116E1450BE
:100D100095EC07F0136E133A134683501318DF0B4C
:100D20001318836E400E116E145095EC07F0136E7D
:100D3000133A1346134683501318BF0B1318836ED0
:100D4000800E116E145095EC07F0136E13321332AF
:100D5000835013187F0B1318836E84848494420E7F
:100D6000E82EFED700D0010E116E145095EC07F05E
:100D7000136E133A83501318EF0B1318836E020E81
:100D8000116E145095EC07F0136E133A134683500E
:100D90001318DF0B1318836E040E116E145095ECAC
:100DA00007F0136E133A1346134683501318BF0B04
:100DB0001318836E080E116E145095EC07F0136E25
:100DC00013321332835013187F0B1318836E8484ED
:100DD00084941200000E956E969496929690000E52
:100DE000836E849084928494270E156EF50EE82EFF
:100DF000FED7152EFCD700F0000E166E300E78ECE4
:100E000006F00D0E156EFC0EE82EFED7152EFCD743
:100E1000162A020E16640FEF07F011EF07F0FEEF2F
:100E200006F0020E78EC06F01A0EE82EFED700D07F
:100E3000280E78EC06F01A0EE82EFED700D0010E30
:100E400078EC06F0060E156E300EE82EFED7152E45
:100E5000FCD700D00C0E78EC06F01A0EE82EFED768
:100E600000D0060E78EC06F01A0EE82EFED700D061
:100E700012001B6E1B04D8A440EF07F042EF07F0EE
:100E800047EF07F017507F0F1A6E53EF07F0020E6F
:100E90001B18D8A44EEF07F050EF07F053EF07F000
:100EA0001750BF0F1A6E1AC015F0000EA5EC07F010
:100EB00066EF07F018C0F6FF19C0F7FF0800F5CF7E
:100EC00015F0010EA5EC07F0184A192A18C0F6FF14
:100ED00019C0F7FF0800F5500009D8A472EF07F019
:100EE00074EF07F05AEF07F01200CDEC07F0C1ECF9
:100EF00007F0D2EC07F0C8EC07F0EAEC06F0010EC0
:100F0000176E1E0E186E060E196E010E39EC07F0E4
:100F1000020E176E110E186E060E196E020E39ECC7
:100F200007F091EF07F007EF00F0126E1250111466
:100F30000009D8B49EEF07F0A0EF07F0A3EF07F089
:100F4000010EA4EF07F0000E1200166E16B002D0CC
:100F5000849001D08480420EE82EFED700D0849485
:100F6000155078EC06F012001F6A1E6A1D6A1C6A92
:100F700020902092000EF86E060EF76E000175EFBD
:100F800007F0000E936E000E816E0F0EC16E120000
:100F9000C00ED56E000ED66E1200000ED36E000E7F
:0A0FA0009B6E1200A00EF26E12000C
:020000040020DA
:08000000FFFFFFFFFFFFFFFF00
:020000040030CA
:0E000000FF02191EFF8181FF0FC00FE00F40AD
:00000001FF
