:040000009CEF00F081
:100018007180D8CF02F0E8CF03F0E0CF04F0F2A46B
:1000280018EF00F01AEF00F094EF00F00001864B93
:10003800872B87BF29EF00F0875109E1140E865DF1
:10004800D8A029EF00F02BEF00F08FEF00F0000EA2
:10005800876F000E866F81B034EF00F037EF00F045
:10006800010E38EF00F0000EFF0A016E81500118F2
:10007800FE0B0118816E844B852B85BF4DEF00F078
:10008800855109E1020E845DD8A04DEF00F04FEFD5
:1000980000F08FEF00F06E4A6F2A6FBE5DEF00F040
:1000A8006F5009E13C0E6E5CD8A05DEF00F05FEF89
:1000B80000F08BEF00F0000E6F6E000E6E6E824B3C
:1000C800832B83BF71EF00F0835109E13C0E825D01
:1000D800D8A071EF00F073EF00F08BEF00F0000E86
:1000E800836F000E826F804B812B81BF85EF00F0FC
:1000F800815109E1180E805DD8A085EF00F087EFE7
:1001080000F08BEF00F0000E816F000E806F000E84
:10011800856F000E846F000ED76E3D0ED66EF2947A
:1001280004C0E0FF03C0E8FF02C0D8FF71901000D0
:04013800A7EF0AF033
:10060000005245414C20434C4F434B2038626974A3
:1006100073002020202020202020202020202020A7
:100620002000253032643A253032643A2530326475
:10063000000022C038F023C039F024C03AF025C0B1
:100640003BF026C03CF027C03DF028C03EF029C05A
:100650003FF03FBE2EEF03F031EF03F0010E32EF1B
:1006600003F0000E406E4050D8B439EF03F03BEF7A
:1006700003F04BEF03F03F1E3E1E3D1E3C1E3B1E93
:100680003A1E391E386C000E39223A223B223C2297
:100690003D223E223F226DBE50EF03F052EF03F0A9
:1006A00053EF03F070926DBE60EF03F06D5006E102
:1006B0006C04D8B05EEF03F060EF03F066EF03F078
:1006C000000E356E010E346E6AEF03F06CC034F02C
:1006D0006DC035F06AC036F06BC037F04050D8B40A
:1006E00074EF03F076EF03F08DEF03F03606D8A039
:1006F00037064050D8A47FEF03F081EF03F087EF77
:1007000003F0000E336E2B0E326E8BEF03F0000EF3
:10071000336E2D0E326E32C040F0000E426E1F0E50
:10072000416E000E0001A76F12EF04F04106D8A041
:100730004206880E4124D96E000E4220DA6E38C07F
:1007400005F039C006F03AC007F03BC008F03CC0E5
:1007500009F03DC00AF03EC00BF03FC00CF00A0E9D
:100760000D6E000E0E6E000E0F6E000E106E000E5F
:10077000116E000E126E000E136E000E146E84ECDD
:1007800006F005C02AF006C02BF007C02CF008C008
:100790002DF009C02EF00AC02FF00BC030F00CC0B5
:1007A00031F02AC017F02BC018F071EC0AF0175086
:1007B000300FDF6E3406D8A035063606D8A03706CF
:1007C00038C005F039C006F03AC007F03BC008F069
:1007D0003CC009F03DC00AF03EC00BF03FC00CF039
:1007E0000A0E0D6E000E0E6E000E0F6E000E106ED5
:1007F000000E116E000E126E000E136E000E146EBF
:10080000C0EC05F005C038F006C039F007C03AF07A
:1008100008C03BF009C03CF00AC03DF00BC03EF000
:100820000CC03FF042BE1DEF04F0425008E141040D
:10083000D8A01DEF04F01FEF04F04FEF04F0385084
:1008400039103A103B103C103D103E103F10D8A418
:100850002CEF04F02EEF04F096EF03F035BE3BEFE3
:1008600004F0355006E13404D8B039EF04F03BEF22
:1008700004F096EF03F037BE46EF04F0375008E17E
:100880003604D8A046EF04F048EF04F04FEF04F030
:1008900070B24DEF04F04FEF04F096EF03F04050CC
:1008A000D8B455EF04F057EF04F062EF04F04106BE
:1008B000D8A04206880E4124D96E000E4220DA6E7E
:1008C00040C0DFFF20C015F021C016F0880E412483
:1008D000176E000E4220186E36C019F037C01AF09D
:1008E000B2EC08F0120045C0D9FF46C0DAFFDECFF7
:1008F000F6FFDDCFF7FF0800F550250AD8A483EFF7
:1009000004F085EF04F0ABEF05F045C0D9FF46C019
:10091000DAFFDE2A000EDD22000E6B6E000E6A6E1C
:100920006AC070F06C686D68000E556E000E546EF3
:10093000C4EF04F0708245C0D9FF46C0DAFFDE2A5A
:10094000000EDD22C4EF04F0000E556E010E546E51
:10095000C4EF04F045C0D9FF46C0DAFFDECFF6FF92
:10096000DDCFF7FF0800F550496E4A6A4A50000A89
:10097000D8B4BDEF04F0A4EF04F04950300AD8B465
:100980009AEF04F0A4EF04F054505510D8B4CBEF14
:1009900004F0CDEF04F0AAEF04F045C0D9FF46C043
:1009A000DAFFDECFF6FFDDCFF7FF0800F5502A0AA9
:1009B000D8A4DDEF04F0DFEF04F008EF05F045C048
:1009C000D9FF46C0DAFFDE2A000EDD2247C0D9FF7C
:1009D00048C0DAFFDFCF49F0020EDE26DFCF4AF053
:1009E000000EDD2249C0D9FF4AC0DAFFDECF6AF02F
:1009F000DDCF6BF06BBE01EF05F0FFEF04F03BEFD6
:100A000005F070806A6C6B1ED8B06B2A3BEF05F066
:100A100045C0D9FF46C0DAFFDECF0BF0DDCF0CF0CA
:100A200036EC07F00BC06AF00CC06BF01FEF05F05E
:100A300045C0D9FF46C0DAFFDE2A000EDD2245C0E0
:100A4000D9FF46C0DAFFDECFF6FFDDCFF7FF0800A3
:100A5000F5CF49F0D00E49244A6E4B6AFF0E4B2267
:100A60004B5009E10A0E4A5CD8A039EF05F03BEF84
:100A700005F018EF05F045C0D9FF46C0DAFFDECF1C
:100A800056F0DDCF57F056C0F6FF57C0F7FF08000D
:100A9000F550640AD8B44FEF05F051EF05F05FEF61
:100AA00005F056C0F6FF57C0F7FF0800F550690A79
:100AB000D8A45DEF05F05FEF05F0A2EF05F047C0A9
:100AC000D9FF48C0DAFFDFCF49F0020EDE26DFCFC4
:100AD0004AF0000EDD2249C0D9FF4AC0DAFFDECF5E
:100AE0004CF0DDCF4DF0000E4DBEFF0E4E6E4F6E42
:100AF000506E516E526E536E010E5624496E000EAA
:100B000057204A6E45C0D9FF46C0DAFF49C0DEFF14
:100B10004AC0DDFF43C020F044C021F04CC022F0A9
:100B20004DC023F04EC024F04FC025F050C026F039
:100B300051C027F052C028F053C029F019EC03F03F
:100B4000BFEF05F045C0D9FF46C0DAFFDE2A000E30
:100B5000DD22BFEF05F045C0D9FF46C0DAFFDECF8A
:100B6000F6FFDDCFF7FF0800F550056E066A43C0BB
:100B700007F044C008F04DEC08F0A2EF05F01200B9
:100B8000000E166E14BEC9EF05F0C7EF05F0DBEFDF
:100B900005F0141E131E121E111E101E0F1E0E1E17
:100BA0000D6C000E0E220F2210221122122213228F
:100BB0001422010E166E0CBEE2EF05F0E0EF05F018
:100BC000F4EF05F00C1E0B1E0A1E091E081E071E60
:100BD000061E056C000E06220722082209220A22A0
:100BE0000B220C22010E161A20EE17F0070EDE6AF9
:100BF000E806FDE20D500E100F101010111012102B
:100C000013101410D8B407EF06F009EF06F05BEFED
:100C100006F0010E156E17EF06F0D8900D360E3661
:100C20000F3610361136123613361436152A14AE16
:100C30001CEF06F01EEF06F00DEF06F0D890173609
:100C4000183619361A361B361C361D361E360D5010
:100C5000055C0E5006580F50075810500858115098
:100C6000095812500A5813500B5814500C58D8A059
:100C70003CEF06F03EEF06F04FEF06F00D50055E3C
:100C80000E50065A0F50075A1050085A1150095A60
:100C900012500A5A13500B5A14500C5A1780D890FD
:100CA000143213321232113210320F320E320D3230
:100CB000152E1EEF06F01650D8B461EF06F063EF64
:100CC00006F073EF06F01E1E1D1E1C1E1B1E1A1EB4
:100CD000191E181E176C000E182219221A221B2228
:100CE0001C221D221E2217C005F018C006F019C0D4
:100CF00007F01AC008F01BC009F01CC00AF01DC0A4
:100D00000BF01EC00CF01200000E166E0CBE8DEF24
:100D100006F08BEF06F09FEF06F00C1E0B1E0A1E6E
:100D2000091E081E071E061E056C000E062207225D
:100D3000082209220A220B220C22010E166E14BE72
:100D4000A6EF06F0A4EF06F0B6EF06F0141E131E91
:100D5000121E111E101E0F1E0E1E0D6C000E0E22F6
:100D60000F22102211221222132214220D500E10D3
:100D70000F1010101110121013101410D8B4C3EF6C
:100D800006F0C5EF06F00DEF07F0010E156ED3EF7C
:100D900006F0D8900D360E360F3610361136123654
:100DA00013361436152A14AED8EF06F0DAEF06F033
:100DB000C9EF06F00D50055C0E5006580F5007584D
:100DC000105008581150095812500A5813500B5817
:100DD00014500C58D8A0EFEF06F0F1EF06F001EF39
:100DE00007F00D50055E0E50065A0F50075A10506E
:100DF000085A1150095A12500A5A13500B5A1450DB
:100E00000C5AD890143213321232113210320F327F
:100E10000E320D32152EDAEF06F01650D8B413EF5D
:100E200007F015EF07F025EF07F00C1E0B1E0A1E4A
:100E3000091E081E071E061E056C000E062207224C
:100E4000082209220A220B220C2205C005F006C046
:100E500006F007C007F008C008F009C009F00AC092
:100E60000AF00BC00BF00CC00CF01200000E136E59
:100E7000000E126E000E116E000E106E42EF07F0A3
:100E80000B4A0C2A0BC0F6FF0CC0F7FF0800F55008
:100E9000200AD8B44EEF07F050EF07F040EF07F00C
:100EA0000BC0F6FF0CC0F7FF0800F5CF0DF0F70EF2
:100EB0000D240E6E0F6AFF0E0F220F5009E1050E72
:100EC0000E5CD8A066EF07F068EF07F040EF07F080
:100ED00072EF07F0000E116E010E106E0B4A0C2A15
:100EE000A7EF07F00BC0F6FF0CC0F7FF0800F550A6
:100EF0000D6E0E6A0E50000AD8B481EF07F0A7EF0E
:100F000007F00D502B0AD8B46EEF07F0060AD8B4DC
:100F10006AEF07F0A7EF07F012C005F013C006F064
:100F2000000E086E0A0E076EBAEC0AF00BC0F6FF50
:100F30000CC0F7FF0800F550055E000E065A300E93
:100F40000524126E000E0620136E6EEF07F00BC024
:100F5000F6FF0CC0F7FF0800F5CF0DF0D00E0D2402
:100F60000E6E0F6AFF0E0F220F5009E10A0E0E5C83
:100F7000D8A0BDEF07F0BFEF07F08CEF07F01050DF
:100F80001110D8A4C6EF07F0C8EF07F0D6EF07F0AE
:100F900012C00DF013C00EF00D1E0E1E0D4A0E2ACB
:100FA0000DC00BF00EC00CF0DAEF07F012C00BF022
:100FB00013C00CF01200086E100E056E0850CDEC38
:100FC0000AF0076E073A83500718EF0B0718836E75
:100FD000200E056E0850CDEC0AF0076E073A074662
:100FE00083500718DF0B0718836E400E056E0850FC
:100FF000CDEC0AF0076E073A0746074683500718FC
:10100000BF0B0718836E800E056E0850CDEC0AF0FA
:10101000076E07320732835007187F0B0718836E5D
:1010200084848494420EE82EFED700D0010E056E13
:101030000850CDEC0AF0076E073A83500718EF0B03
:101040000718836E020E056E0850CDEC0AF0076E8D
:10105000073A074683500718DF0B0718836E040E04
:10106000056E0850CDEC0AF0076E073A07460746B2
:1010700083500718BF0B0718836E080E056E0850C3
:10108000CDEC0AF0076E07320732835007187F0B4A
:101090000718836E84848494120007500810D8B413
:1010A00054EF08F056EF08F05FEF08F00750081013
:1010B000D8A45DEF08F05FEF08F064EF08F005508A
:1010C00002EC0BF0B1EF08F020EE09F00750D92642
:1010D0000850DA22DE50DE10D8B471EF08F073EF5A
:1010E00008F08EEF08F020EE09F00750D9260850DE
:1010F000DA2210EE03F00750E1260850E222DE501B
:10110000E65CE650800A0D6EDE50800A0D58D8B0BD
:101110008CEF08F08EEF08F0B1EF08F020EE03F04E
:101120000750D9260850DA22DECF09F0DDCF0AF0C9
:1011300007C0D9FF08C0DAFFDECF0BF0DDCF0CF01F
:1011400009500B24D96E0A500C20DA6E05C0DFFF5F
:1011500020EE03F00750D9260850DA22DE2A000ECE
:10116000DD22120070A0B7EF08F0B9EF08F0C3EF6E
:1011700008F017C00EF018C00FF015C010F016C020
:1011800011F04FEC0AF01ABEC8EF08F0CAEF08F0F1
:10119000D0EF08F019C01EF01AC01FF0D4EF08F00D
:1011A000000E1F6E000E1E6E000E1D6E000E1C6ED9
:1011B000E6EF08F0000E066E200E056E15C007F073
:1011C00016C008F04DEC08F01C4A1D2A1E501C5C8D
:1011D0001D50800A1B6E1F50800A1B58D8A0F3EFC9
:1011E00008F0F5EF08F0DAEF08F070B0FAEF08F069
:1011F000FCEF08F006EF09F017C00EF018C00FF072
:1012000015C010F016C011F04FEC0AF012000F6E6E
:101210000F04D8A40EEF09F010EF09F015EF09F054
:101220000B507F0F0E6E21EF09F0020E0F18D8A49D
:101230001CEF09F01EEF09F021EF09F00B50BF0F72
:101240000E6E0EC009F0000EDDEC0AF03EEF09F064
:101250000CC0F6FF0DC0F7FFF86A050EF76403D067
:101260000800F55005D0F6CFE1FFF7CFE2FFE750D9
:10127000096E010EDDEC0AF00C4A0D2A0CC0F6FFD7
:101280000DC0F7FFF86A050EF76403D00800F550AB
:1012900005D0F6CFE1FFF7CFE2FFE7500009D8A471
:1012A00054EF09F056EF09F028EF09F01200000E94
:1012B000956E969496929690000E836E849084928A
:1012C0008494270E096EF50EE82EFED7092EFCD762
:1012D00000F0000E0A6E300EDBEC07F00D0E096E0A
:1012E000FC0EE82EFED7092EFCD70A2A020E0A644D
:1012F0007CEF09F07EEF09F06BEF09F0020EDBECFA
:1013000007F01A0EE82EFED700D0280EDBEC07F00F
:101310001A0EE82EFED700D0010EDBEC07F0060E09
:10132000096E300EE82EFED7092EFCD700D00C0E29
:10133000DBEC07F01A0EE82EFED700D0060EDBEC31
:1013400007F01A0EE82EFED700D01200FAEC0AF0D1
:10135000F3EC0AF0FFEC0AF0ECEC0AF057EC09F0C1
:10136000010E0B6E010E0C6E060E0D6E010E07ECDB
:1013700009F0A80E606E000E616E220E626E060EFF
:10138000636E80C064F081C065F082C066F083C087
:1013900067F06EC068F06FC069F0DCEC09F0050E14
:1013A0000B6EA80E0C6E000E0D6E020E07EC09F00F
:1013B000B9EF09F09CEF00F0640E0001B86F000E69
:1013C000B96F60C0BAF061C0BBF0000EBE6F000E16
:1013D000BD6F000EC46F000EC36FBA0E586E000EC4
:1013E000596E62C05AF063C05BF0B80E5C6E000EBE
:1013F0005D6E05EC0AF00001BD516024D96EBE514E
:101400006120DA6E000EDF6E12005AC05EF05BC023
:101410005FF019EF0AF058C043F059C044F05E0E77
:10142000456E000E466E5CC047F05DC048F073EC40
:1014300004F05EC0F6FF5FC0F7FF0800F55000093A
:10144000D8A425EF0AF027EF0AF00BEF0AF0000E00
:10145000596E000E586E1200010E096E200E05180E
:101460000610D8B436EF0AF038EF0AF04BEF0AF066
:10147000F70E0524076EFF0E0620086E085009E1DE
:10148000050E075CD8A047EF0AF049EF0AF04BEFD2
:101490000AF0000E096E09C005F0066A1200000E7F
:1014A000146E000E136E60EF0AF012C005F0066AAB
:1014B00010C007F011C008F04DEC08F0134A142AD0
:1014C00013500E24D96E14500F20DA6EDF50126EB6
:1014D0001250D8A46EEF0AF070EF0AF055EF0AF040
:1014E000120018BE7EEF0AF0185006E11704D8B0BB
:1014F0007CEF0AF07EEF0AF08CEF0AF017C019F0CB
:1015000018C01AF0191E1A1E194A1A2A19C017F003
:101510001AC018F090EF0AF017C017F018C018F0B2
:101520001200D00E0524076EFF0E0620086E08502C
:101530000AE10A0E075CD8A0A0EF0AF0A3EF0AF0B8
:10154000010EA4EF0AF0000E056E066A120000EE0E
:1015500080F0380EEE6AE806FDE100EE6AF0070E54
:10156000EE6AE806FDE171907192000EF86E0001DE
:10157000A6EF09F005500702F3CF09F0F4CF0AF007
:1015800005500802F3500A2606500702F3500A26B7
:1015900009C005F00AC006F01200066E06500514D8
:1015A0000009D8B4D6EF0AF0D8EF0AF0DBEF0AF062
:1015B000010EDCEF0AF0000E12000A6E0AB002D033
:1015C000849001D08480420EE82EFED700D084940F
:1015D0000950DBEC07F01200C70ED56E000ED76E77
:1015E0003D0ED66E1200000E936E010E816E0F0E30
:1015F000C16E1200720ED36E000E9B6E1200A00E12
:06160000F26E1200120060
:020000040020DA
:08000000FFFFFFFFFFFFFFFF00
:020000040030CA
:0E000000FF08191EFF8181FF0FC00FE00F40A7
:00000001FF
